{
  "_format": "hh-sol-artifact-1",
  "contractName": "NFTCollectible",
  "sourceName": "contracts/NFTCollectible.sol",
  "abi": [
    {
      "inputs": [
        {
          "internalType": "string",
          "name": "baseURI",
          "type": "string"
        }
      ],
      "stateMutability": "nonpayable",
      "type": "constructor"
    },
    {
      "anonymous": false,
      "inputs": [
        {
          "indexed": true,
          "internalType": "address",
          "name": "owner",
          "type": "address"
        },
        {
          "indexed": true,
          "internalType": "address",
          "name": "approved",
          "type": "address"
        },
        {
          "indexed": true,
          "internalType": "uint256",
          "name": "tokenId",
          "type": "uint256"
        }
      ],
      "name": "Approval",
      "type": "event"
    },
    {
      "anonymous": false,
      "inputs": [
        {
          "indexed": true,
          "internalType": "address",
          "name": "owner",
          "type": "address"
        },
        {
          "indexed": true,
          "internalType": "address",
          "name": "operator",
          "type": "address"
        },
        {
          "indexed": false,
          "internalType": "bool",
          "name": "approved",
          "type": "bool"
        }
      ],
      "name": "ApprovalForAll",
      "type": "event"
    },
    {
      "anonymous": false,
      "inputs": [
        {
          "indexed": true,
          "internalType": "address",
          "name": "previousOwner",
          "type": "address"
        },
        {
          "indexed": true,
          "internalType": "address",
          "name": "newOwner",
          "type": "address"
        }
      ],
      "name": "OwnershipTransferred",
      "type": "event"
    },
    {
      "anonymous": false,
      "inputs": [
        {
          "indexed": true,
          "internalType": "address",
          "name": "from",
          "type": "address"
        },
        {
          "indexed": true,
          "internalType": "address",
          "name": "to",
          "type": "address"
        },
        {
          "indexed": true,
          "internalType": "uint256",
          "name": "tokenId",
          "type": "uint256"
        }
      ],
      "name": "Transfer",
      "type": "event"
    },
    {
      "inputs": [],
      "name": "MAX_PER_MINT",
      "outputs": [
        {
          "internalType": "uint256",
          "name": "",
          "type": "uint256"
        }
      ],
      "stateMutability": "view",
      "type": "function"
    },
    {
      "inputs": [],
      "name": "MAX_SUPPLY",
      "outputs": [
        {
          "internalType": "uint256",
          "name": "",
          "type": "uint256"
        }
      ],
      "stateMutability": "view",
      "type": "function"
    },
    {
      "inputs": [],
      "name": "PRICE",
      "outputs": [
        {
          "internalType": "uint256",
          "name": "",
          "type": "uint256"
        }
      ],
      "stateMutability": "view",
      "type": "function"
    },
    {
      "inputs": [
        {
          "internalType": "address",
          "name": "to",
          "type": "address"
        },
        {
          "internalType": "uint256",
          "name": "tokenId",
          "type": "uint256"
        }
      ],
      "name": "approve",
      "outputs": [],
      "stateMutability": "nonpayable",
      "type": "function"
    },
    {
      "inputs": [
        {
          "internalType": "address",
          "name": "owner",
          "type": "address"
        }
      ],
      "name": "balanceOf",
      "outputs": [
        {
          "internalType": "uint256",
          "name": "",
          "type": "uint256"
        }
      ],
      "stateMutability": "view",
      "type": "function"
    },
    {
      "inputs": [],
      "name": "baseTokenURI",
      "outputs": [
        {
          "internalType": "string",
          "name": "",
          "type": "string"
        }
      ],
      "stateMutability": "view",
      "type": "function"
    },
    {
      "inputs": [
        {
          "internalType": "uint256",
          "name": "tokenId",
          "type": "uint256"
        }
      ],
      "name": "getApproved",
      "outputs": [
        {
          "internalType": "address",
          "name": "",
          "type": "address"
        }
      ],
      "stateMutability": "view",
      "type": "function"
    },
    {
      "inputs": [
        {
          "internalType": "address",
          "name": "owner",
          "type": "address"
        },
        {
          "internalType": "address",
          "name": "operator",
          "type": "address"
        }
      ],
      "name": "isApprovedForAll",
      "outputs": [
        {
          "internalType": "bool",
          "name": "",
          "type": "bool"
        }
      ],
      "stateMutability": "view",
      "type": "function"
    },
    {
      "inputs": [
        {
          "internalType": "uint256",
          "name": "_count",
          "type": "uint256"
        }
      ],
      "name": "mintNFTs",
      "outputs": [],
      "stateMutability": "payable",
      "type": "function"
    },
    {
      "inputs": [],
      "name": "name",
      "outputs": [
        {
          "internalType": "string",
          "name": "",
          "type": "string"
        }
      ],
      "stateMutability": "view",
      "type": "function"
    },
    {
      "inputs": [],
      "name": "owner",
      "outputs": [
        {
          "internalType": "address",
          "name": "",
          "type": "address"
        }
      ],
      "stateMutability": "view",
      "type": "function"
    },
    {
      "inputs": [
        {
          "internalType": "uint256",
          "name": "tokenId",
          "type": "uint256"
        }
      ],
      "name": "ownerOf",
      "outputs": [
        {
          "internalType": "address",
          "name": "",
          "type": "address"
        }
      ],
      "stateMutability": "view",
      "type": "function"
    },
    {
      "inputs": [],
      "name": "renounceOwnership",
      "outputs": [],
      "stateMutability": "nonpayable",
      "type": "function"
    },
    {
      "inputs": [],
      "name": "reserveNFTs",
      "outputs": [],
      "stateMutability": "nonpayable",
      "type": "function"
    },
    {
      "inputs": [
        {
          "internalType": "address",
          "name": "from",
          "type": "address"
        },
        {
          "internalType": "address",
          "name": "to",
          "type": "address"
        },
        {
          "internalType": "uint256",
          "name": "tokenId",
          "type": "uint256"
        }
      ],
      "name": "safeTransferFrom",
      "outputs": [],
      "stateMutability": "nonpayable",
      "type": "function"
    },
    {
      "inputs": [
        {
          "internalType": "address",
          "name": "from",
          "type": "address"
        },
        {
          "internalType": "address",
          "name": "to",
          "type": "address"
        },
        {
          "internalType": "uint256",
          "name": "tokenId",
          "type": "uint256"
        },
        {
          "internalType": "bytes",
          "name": "data",
          "type": "bytes"
        }
      ],
      "name": "safeTransferFrom",
      "outputs": [],
      "stateMutability": "nonpayable",
      "type": "function"
    },
    {
      "inputs": [
        {
          "internalType": "address",
          "name": "operator",
          "type": "address"
        },
        {
          "internalType": "bool",
          "name": "approved",
          "type": "bool"
        }
      ],
      "name": "setApprovalForAll",
      "outputs": [],
      "stateMutability": "nonpayable",
      "type": "function"
    },
    {
      "inputs": [
        {
          "internalType": "string",
          "name": "_baseTokenURI",
          "type": "string"
        }
      ],
      "name": "setBaseURI",
      "outputs": [],
      "stateMutability": "nonpayable",
      "type": "function"
    },
    {
      "inputs": [
        {
          "internalType": "bytes4",
          "name": "interfaceId",
          "type": "bytes4"
        }
      ],
      "name": "supportsInterface",
      "outputs": [
        {
          "internalType": "bool",
          "name": "",
          "type": "bool"
        }
      ],
      "stateMutability": "view",
      "type": "function"
    },
    {
      "inputs": [],
      "name": "symbol",
      "outputs": [
        {
          "internalType": "string",
          "name": "",
          "type": "string"
        }
      ],
      "stateMutability": "view",
      "type": "function"
    },
    {
      "inputs": [
        {
          "internalType": "uint256",
          "name": "index",
          "type": "uint256"
        }
      ],
      "name": "tokenByIndex",
      "outputs": [
        {
          "internalType": "uint256",
          "name": "",
          "type": "uint256"
        }
      ],
      "stateMutability": "view",
      "type": "function"
    },
    {
      "inputs": [
        {
          "internalType": "address",
          "name": "owner",
          "type": "address"
        },
        {
          "internalType": "uint256",
          "name": "index",
          "type": "uint256"
        }
      ],
      "name": "tokenOfOwnerByIndex",
      "outputs": [
        {
          "internalType": "uint256",
          "name": "",
          "type": "uint256"
        }
      ],
      "stateMutability": "view",
      "type": "function"
    },
    {
      "inputs": [
        {
          "internalType": "uint256",
          "name": "tokenId",
          "type": "uint256"
        }
      ],
      "name": "tokenURI",
      "outputs": [
        {
          "internalType": "string",
          "name": "",
          "type": "string"
        }
      ],
      "stateMutability": "view",
      "type": "function"
    },
    {
      "inputs": [
        {
          "internalType": "address",
          "name": "_owner",
          "type": "address"
        }
      ],
      "name": "tokensOfOwner",
      "outputs": [
        {
          "internalType": "uint256[]",
          "name": "",
          "type": "uint256[]"
        }
      ],
      "stateMutability": "view",
      "type": "function"
    },
    {
      "inputs": [],
      "name": "totalSupply",
      "outputs": [
        {
          "internalType": "uint256",
          "name": "",
          "type": "uint256"
        }
      ],
      "stateMutability": "view",
      "type": "function"
    },
    {
      "inputs": [
        {
          "internalType": "address",
          "name": "from",
          "type": "address"
        },
        {
          "internalType": "address",
          "name": "to",
          "type": "address"
        },
        {
          "internalType": "uint256",
          "name": "tokenId",
          "type": "uint256"
        }
      ],
      "name": "transferFrom",
      "outputs": [],
      "stateMutability": "nonpayable",
      "type": "function"
    },
    {
      "inputs": [
        {
          "internalType": "address",
          "name": "newOwner",
          "type": "address"
        }
      ],
      "name": "transferOwnership",
      "outputs": [],
      "stateMutability": "nonpayable",
      "type": "function"
    },
    {
      "inputs": [],
      "name": "withdraw",
      "outputs": [],
      "stateMutability": "payable",
      "type": "function"
    }
  ],
  "bytecode": "0x60806040523480156200001157600080fd5b5060405162004ac138038062004ac1833981810160405281019062000037919062000442565b6040518060400160405280600f81526020017f4e465420436f6c6c65637469626c6500000000000000000000000000000000008152506040518060400160405280600481526020017f4e465443000000000000000000000000000000000000000000000000000000008152508160009081620000b49190620006de565b508060019081620000c69190620006de565b505050620000e9620000dd6200010160201b60201c565b6200010960201b60201c565b620000fa81620001cf60201b60201c565b5062000848565b600033905090565b6000600a60009054906101000a900473ffffffffffffffffffffffffffffffffffffffff16905081600a60006101000a81548173ffffffffffffffffffffffffffffffffffffffff021916908373ffffffffffffffffffffffffffffffffffffffff1602179055508173ffffffffffffffffffffffffffffffffffffffff168173ffffffffffffffffffffffffffffffffffffffff167f8be0079c531659141344cd1fd0a4f28419497f9722a3daafe3b4186f6b6457e060405160405180910390a35050565b620001df620001f460201b60201c565b80600c9081620001f09190620006de565b5050565b620002046200010160201b60201c565b73ffffffffffffffffffffffffffffffffffffffff166200022a6200028560201b60201c565b73ffffffffffffffffffffffffffffffffffffffff161462000283576040517f08c379a00000000000000000000000000000000000000000000000000000000081526004016200027a9062000826565b60405180910390fd5b565b6000600a60009054906101000a900473ffffffffffffffffffffffffffffffffffffffff16905090565b6000604051905090565b600080fd5b600080fd5b600080fd5b600080fd5b6000601f19601f8301169050919050565b7f4e487b7100000000000000000000000000000000000000000000000000000000600052604160045260246000fd5b6200031882620002cd565b810181811067ffffffffffffffff821117156200033a5762000339620002de565b5b80604052505050565b60006200034f620002af565b90506200035d82826200030d565b919050565b600067ffffffffffffffff82111562000380576200037f620002de565b5b6200038b82620002cd565b9050602081019050919050565b60005b83811015620003b85780820151818401526020810190506200039b565b60008484015250505050565b6000620003db620003d58462000362565b62000343565b905082815260208101848484011115620003fa57620003f9620002c8565b5b6200040784828562000398565b509392505050565b600082601f830112620004275762000426620002c3565b5b815162000439848260208601620003c4565b91505092915050565b6000602082840312156200045b576200045a620002b9565b5b600082015167ffffffffffffffff8111156200047c576200047b620002be565b5b6200048a848285016200040f565b91505092915050565b600081519050919050565b7f4e487b7100000000000000000000000000000000000000000000000000000000600052602260045260246000fd5b60006002820490506001821680620004e657607f821691505b602082108103620004fc57620004fb6200049e565b5b50919050565b60008190508160005260206000209050919050565b60006020601f8301049050919050565b600082821b905092915050565b600060088302620005667fffffffffffffffffffffffffffffffffffffffffffffffffffffffffffffffff8262000527565b62000572868362000527565b95508019841693508086168417925050509392505050565b6000819050919050565b6000819050919050565b6000620005bf620005b9620005b3846200058a565b62000594565b6200058a565b9050919050565b6000819050919050565b620005db836200059e565b620005f3620005ea82620005c6565b84845462000534565b825550505050565b600090565b6200060a620005fb565b62000617818484620005d0565b505050565b5b818110156200063f576200063360008262000600565b6001810190506200061d565b5050565b601f8211156200068e57620006588162000502565b620006638462000517565b8101602085101562000673578190505b6200068b620006828562000517565b8301826200061c565b50505b505050565b600082821c905092915050565b6000620006b36000198460080262000693565b1980831691505092915050565b6000620006ce8383620006a0565b9150826002028217905092915050565b620006e98262000493565b67ffffffffffffffff811115620007055762000704620002de565b5b620007118254620004cd565b6200071e82828562000643565b600060209050601f83116001811462000756576000841562000741578287015190505b6200074d8582620006c0565b865550620007bd565b601f198416620007668662000502565b60005b82811015620007905784890151825560018201915060208501945060208101905062000769565b86831015620007b05784890151620007ac601f891682620006a0565b8355505b6001600288020188555050505b505050505050565b600082825260208201905092915050565b7f4f776e61626c653a2063616c6c6572206973206e6f7420746865206f776e6572600082015250565b60006200080e602083620007c5565b91506200081b82620007d6565b602082019050919050565b600060208201905081810360008301526200084181620007ff565b9050919050565b61426980620008586000396000f3fe6080604052600436106101b75760003560e01c806355f804b3116100ec57806395d89b411161008a578063c87b56dd11610064578063c87b56dd146105de578063d547cfb71461061b578063e985e9c514610646578063f2fde38b14610683576101b7565b806395d89b4114610561578063a22cb4651461058c578063b88d4fde146105b5576101b7565b8063715018a6116100c6578063715018a6146104b75780638462151c146104ce5780638d859f3e1461050b5780638da5cb5b14610536576101b7565b806355f804b3146104145780636352211e1461043d57806370a082311461047a576101b7565b806323b872dd116101595780633b4b1381116101335780633b4b1381146103885780633ccfd60b146103a457806342842e0e146103ae5780634f6ccce7146103d7576101b7565b806323b872dd146102f75780632f745c591461032057806332cb6b0c1461035d576101b7565b8063095ea7b311610195578063095ea7b31461026157806309d42b301461028a578063144100c7146102b557806318160ddd146102cc576101b7565b806301ffc9a7146101bc57806306fdde03146101f9578063081812fc14610224575b600080fd5b3480156101c857600080fd5b506101e360048036038101906101de91906129d0565b6106ac565b6040516101f09190612a18565b60405180910390f35b34801561020557600080fd5b5061020e610726565b60405161021b9190612ac3565b60405180910390f35b34801561023057600080fd5b5061024b60048036038101906102469190612b1b565b6107b8565b6040516102589190612b89565b60405180910390f35b34801561026d57600080fd5b5061028860048036038101906102839190612bd0565b6107fe565b005b34801561029657600080fd5b5061029f610915565b6040516102ac9190612c1f565b60405180910390f35b3480156102c157600080fd5b506102ca61091a565b005b3480156102d857600080fd5b506102e16109b1565b6040516102ee9190612c1f565b60405180910390f35b34801561030357600080fd5b5061031e60048036038101906103199190612c3a565b6109be565b005b34801561032c57600080fd5b5061034760048036038101906103429190612bd0565b610a1e565b6040516103549190612c1f565b60405180910390f35b34801561036957600080fd5b50610372610ac3565b60405161037f9190612c1f565b60405180910390f35b6103a2600480360381019061039d9190612b1b565b610ac8565b005b6103ac610c04565b005b3480156103ba57600080fd5b506103d560048036038101906103d09190612c3a565b610d04565b005b3480156103e357600080fd5b506103fe60048036038101906103f99190612b1b565b610d24565b60405161040b9190612c1f565b60405180910390f35b34801561042057600080fd5b5061043b60048036038101906104369190612dc2565b610d95565b005b34801561044957600080fd5b50610464600480360381019061045f9190612b1b565b610db0565b6040516104719190612b89565b60405180910390f35b34801561048657600080fd5b506104a1600480360381019061049c9190612e0b565b610e36565b6040516104ae9190612c1f565b60405180910390f35b3480156104c357600080fd5b506104cc610eed565b005b3480156104da57600080fd5b506104f560048036038101906104f09190612e0b565b610f01565b6040516105029190612ef6565b60405180910390f35b34801561051757600080fd5b50610520610faf565b60405161052d9190612c1f565b60405180910390f35b34801561054257600080fd5b5061054b610fbb565b6040516105589190612b89565b60405180910390f35b34801561056d57600080fd5b50610576610fe5565b6040516105839190612ac3565b60405180910390f35b34801561059857600080fd5b506105b360048036038101906105ae9190612f44565b611077565b005b3480156105c157600080fd5b506105dc60048036038101906105d79190613025565b61108d565b005b3480156105ea57600080fd5b5061060560048036038101906106009190612b1b565b6110ef565b6040516106129190612ac3565b60405180910390f35b34801561062757600080fd5b50610630611157565b60405161063d9190612ac3565b60405180910390f35b34801561065257600080fd5b5061066d600480360381019061066891906130a8565b6111e5565b60405161067a9190612a18565b60405180910390f35b34801561068f57600080fd5b506106aa60048036038101906106a59190612e0b565b611279565b005b60007f780e9d63000000000000000000000000000000000000000000000000000000007bffffffffffffffffffffffffffffffffffffffffffffffffffffffff1916827bffffffffffffffffffffffffffffffffffffffffffffffffffffffff1916148061071f575061071e826112fc565b5b9050919050565b60606000805461073590613117565b80601f016020809104026020016040519081016040528092919081815260200182805461076190613117565b80156107ae5780601f10610783576101008083540402835291602001916107ae565b820191906000526020600020905b81548152906001019060200180831161079157829003601f168201915b5050505050905090565b60006107c3826113de565b6004600083815260200190815260200160002060009054906101000a900473ffffffffffffffffffffffffffffffffffffffff169050919050565b600061080982610db0565b90508073ffffffffffffffffffffffffffffffffffffffff168373ffffffffffffffffffffffffffffffffffffffff1603610879576040517f08c379a0000000000000000000000000000000000000000000000000000000008152600401610870906131ba565b60405180910390fd5b8073ffffffffffffffffffffffffffffffffffffffff16610898611429565b73ffffffffffffffffffffffffffffffffffffffff1614806108c757506108c6816108c1611429565b6111e5565b5b610906576040517f08c379a00000000000000000000000000000000000000000000000000000000081526004016108fd9061324c565b60405180910390fd5b6109108383611431565b505050565b600381565b6109226114ea565b600061092e600b611568565b9050601e610946600a8361157690919063ffffffff16565b10610986576040517f08c379a000000000000000000000000000000000000000000000000000000000815260040161097d906132b8565b60405180910390fd5b60005b600a8110156109ad5761099a61158c565b80806109a590613307565b915050610989565b5050565b6000600880549050905090565b6109cf6109c9611429565b826115b1565b610a0e576040517f08c379a0000000000000000000000000000000000000000000000000000000008152600401610a05906133c1565b60405180910390fd5b610a19838383611646565b505050565b6000610a2983610e36565b8210610a6a576040517f08c379a0000000000000000000000000000000000000000000000000000000008152600401610a6190613453565b60405180910390fd5b600660008473ffffffffffffffffffffffffffffffffffffffff1673ffffffffffffffffffffffffffffffffffffffff168152602001908152602001600020600083815260200190815260200160002054905092915050565b601e81565b6000610ad4600b611568565b9050601e610aeb838361157690919063ffffffff16565b1115610b2c576040517f08c379a0000000000000000000000000000000000000000000000000000000008152600401610b23906134bf565b60405180910390fd5b600082118015610b3d575060038211155b610b7c576040517f08c379a0000000000000000000000000000000000000000000000000000000008152600401610b7390613551565b60405180910390fd5b610b978267ebec21ee1da4000061193f90919063ffffffff16565b341015610bd9576040517f08c379a0000000000000000000000000000000000000000000000000000000008152600401610bd0906135e3565b60405180910390fd5b60005b82811015610bff57610bec61158c565b8080610bf790613307565b915050610bdc565b505050565b610c0c6114ea565b600047905060008111610c54576040517f08c379a0000000000000000000000000000000000000000000000000000000008152600401610c4b9061364f565b60405180910390fd5b60003373ffffffffffffffffffffffffffffffffffffffff1682604051610c7a906136a0565b60006040518083038185875af1925050503d8060008114610cb7576040519150601f19603f3d011682016040523d82523d6000602084013e610cbc565b606091505b5050905080610d00576040517f08c379a0000000000000000000000000000000000000000000000000000000008152600401610cf790613701565b60405180910390fd5b5050565b610d1f8383836040518060200160405280600081525061108d565b505050565b6000610d2e6109b1565b8210610d6f576040517f08c379a0000000000000000000000000000000000000000000000000000000008152600401610d6690613793565b60405180910390fd5b60088281548110610d8357610d826137b3565b5b90600052602060002001549050919050565b610d9d6114ea565b80600c9081610dac919061398e565b5050565b600080610dbc83611955565b9050600073ffffffffffffffffffffffffffffffffffffffff168173ffffffffffffffffffffffffffffffffffffffff1603610e2d576040517f08c379a0000000000000000000000000000000000000000000000000000000008152600401610e2490613aac565b60405180910390fd5b80915050919050565b60008073ffffffffffffffffffffffffffffffffffffffff168273ffffffffffffffffffffffffffffffffffffffff1603610ea6576040517f08c379a0000000000000000000000000000000000000000000000000000000008152600401610e9d90613b3e565b60405180910390fd5b600360008373ffffffffffffffffffffffffffffffffffffffff1673ffffffffffffffffffffffffffffffffffffffff168152602001908152602001600020549050919050565b610ef56114ea565b610eff6000611992565b565b60606000610f0e83610e36565b905060008167ffffffffffffffff811115610f2c57610f2b612c97565b5b604051908082528060200260200182016040528015610f5a5781602001602082028036833780820191505090505b50905060005b82811015610fa457610f728582610a1e565b828281518110610f8557610f846137b3565b5b6020026020010181815250508080610f9c90613307565b915050610f60565b508092505050919050565b67ebec21ee1da4000081565b6000600a60009054906101000a900473ffffffffffffffffffffffffffffffffffffffff16905090565b606060018054610ff490613117565b80601f016020809104026020016040519081016040528092919081815260200182805461102090613117565b801561106d5780601f106110425761010080835404028352916020019161106d565b820191906000526020600020905b81548152906001019060200180831161105057829003601f168201915b5050505050905090565b611089611082611429565b8383611a58565b5050565b61109e611098611429565b836115b1565b6110dd576040517f08c379a00000000000000000000000000000000000000000000000000000000081526004016110d4906133c1565b60405180910390fd5b6110e984848484611bc4565b50505050565b60606110fa826113de565b6000611104611c20565b90506000815111611124576040518060200160405280600081525061114f565b8061112e84611cb2565b60405160200161113f929190613b9a565b6040516020818303038152906040525b915050919050565b600c805461116490613117565b80601f016020809104026020016040519081016040528092919081815260200182805461119090613117565b80156111dd5780601f106111b2576101008083540402835291602001916111dd565b820191906000526020600020905b8154815290600101906020018083116111c057829003601f168201915b505050505081565b6000600560008473ffffffffffffffffffffffffffffffffffffffff1673ffffffffffffffffffffffffffffffffffffffff16815260200190815260200160002060008373ffffffffffffffffffffffffffffffffffffffff1673ffffffffffffffffffffffffffffffffffffffff16815260200190815260200160002060009054906101000a900460ff16905092915050565b6112816114ea565b600073ffffffffffffffffffffffffffffffffffffffff168173ffffffffffffffffffffffffffffffffffffffff16036112f0576040517f08c379a00000000000000000000000000000000000000000000000000000000081526004016112e790613c30565b60405180910390fd5b6112f981611992565b50565b60007f80ac58cd000000000000000000000000000000000000000000000000000000007bffffffffffffffffffffffffffffffffffffffffffffffffffffffff1916827bffffffffffffffffffffffffffffffffffffffffffffffffffffffff191614806113c757507f5b5e139f000000000000000000000000000000000000000000000000000000007bffffffffffffffffffffffffffffffffffffffffffffffffffffffff1916827bffffffffffffffffffffffffffffffffffffffffffffffffffffffff1916145b806113d757506113d682611d80565b5b9050919050565b6113e781611dea565b611426576040517f08c379a000000000000000000000000000000000000000000000000000000000815260040161141d90613aac565b60405180910390fd5b50565b600033905090565b816004600083815260200190815260200160002060006101000a81548173ffffffffffffffffffffffffffffffffffffffff021916908373ffffffffffffffffffffffffffffffffffffffff160217905550808273ffffffffffffffffffffffffffffffffffffffff166114a483610db0565b73ffffffffffffffffffffffffffffffffffffffff167f8c5be1e5ebec7d5bd14f71427d1e84f3dd0314c0f7b2291e5b200ac8c7c3b92560405160405180910390a45050565b6114f2611429565b73ffffffffffffffffffffffffffffffffffffffff16611510610fbb565b73ffffffffffffffffffffffffffffffffffffffff1614611566576040517f08c379a000000000000000000000000000000000000000000000000000000000815260040161155d90613c9c565b60405180910390fd5b565b600081600001549050919050565b600081836115849190613cbc565b905092915050565b6000611598600b611568565b90506115a43382611e2b565b6115ae600b611e49565b50565b6000806115bd83610db0565b90508073ffffffffffffffffffffffffffffffffffffffff168473ffffffffffffffffffffffffffffffffffffffff1614806115ff57506115fe81856111e5565b5b8061163d57508373ffffffffffffffffffffffffffffffffffffffff16611625846107b8565b73ffffffffffffffffffffffffffffffffffffffff16145b91505092915050565b8273ffffffffffffffffffffffffffffffffffffffff1661166682610db0565b73ffffffffffffffffffffffffffffffffffffffff16146116bc576040517f08c379a00000000000000000000000000000000000000000000000000000000081526004016116b390613d62565b60405180910390fd5b600073ffffffffffffffffffffffffffffffffffffffff168273ffffffffffffffffffffffffffffffffffffffff160361172b576040517f08c379a000000000000000000000000000000000000000000000000000000000815260040161172290613df4565b60405180910390fd5b6117388383836001611e5f565b8273ffffffffffffffffffffffffffffffffffffffff1661175882610db0565b73ffffffffffffffffffffffffffffffffffffffff16146117ae576040517f08c379a00000000000000000000000000000000000000000000000000000000081526004016117a590613d62565b60405180910390fd5b6004600082815260200190815260200160002060006101000a81549073ffffffffffffffffffffffffffffffffffffffff02191690556001600360008573ffffffffffffffffffffffffffffffffffffffff1673ffffffffffffffffffffffffffffffffffffffff168152602001908152602001600020600082825403925050819055506001600360008473ffffffffffffffffffffffffffffffffffffffff1673ffffffffffffffffffffffffffffffffffffffff16815260200190815260200160002060008282540192505081905550816002600083815260200190815260200160002060006101000a81548173ffffffffffffffffffffffffffffffffffffffff021916908373ffffffffffffffffffffffffffffffffffffffff160217905550808273ffffffffffffffffffffffffffffffffffffffff168473ffffffffffffffffffffffffffffffffffffffff167fddf252ad1be2c89b69c2b068fc378daa952ba7f163c4a11628f55a4df523b3ef60405160405180910390a461193a8383836001611fbd565b505050565b6000818361194d9190613e14565b905092915050565b60006002600083815260200190815260200160002060009054906101000a900473ffffffffffffffffffffffffffffffffffffffff169050919050565b6000600a60009054906101000a900473ffffffffffffffffffffffffffffffffffffffff16905081600a60006101000a81548173ffffffffffffffffffffffffffffffffffffffff021916908373ffffffffffffffffffffffffffffffffffffffff1602179055508173ffffffffffffffffffffffffffffffffffffffff168173ffffffffffffffffffffffffffffffffffffffff167f8be0079c531659141344cd1fd0a4f28419497f9722a3daafe3b4186f6b6457e060405160405180910390a35050565b8173ffffffffffffffffffffffffffffffffffffffff168373ffffffffffffffffffffffffffffffffffffffff1603611ac6576040517f08c379a0000000000000000000000000000000000000000000000000000000008152600401611abd90613ea2565b60405180910390fd5b80600560008573ffffffffffffffffffffffffffffffffffffffff1673ffffffffffffffffffffffffffffffffffffffff16815260200190815260200160002060008473ffffffffffffffffffffffffffffffffffffffff1673ffffffffffffffffffffffffffffffffffffffff16815260200190815260200160002060006101000a81548160ff0219169083151502179055508173ffffffffffffffffffffffffffffffffffffffff168373ffffffffffffffffffffffffffffffffffffffff167f17307eab39ab6107e8899845ad3d59bd9653f200f220920489ca2b5937696c3183604051611bb79190612a18565b60405180910390a3505050565b611bcf848484611646565b611bdb84848484611fc3565b611c1a576040517f08c379a0000000000000000000000000000000000000000000000000000000008152600401611c1190613f34565b60405180910390fd5b50505050565b6060600c8054611c2f90613117565b80601f0160208091040260200160405190810160405280929190818152602001828054611c5b90613117565b8015611ca85780601f10611c7d57610100808354040283529160200191611ca8565b820191906000526020600020905b815481529060010190602001808311611c8b57829003601f168201915b5050505050905090565b606060006001611cc18461214a565b01905060008167ffffffffffffffff811115611ce057611cdf612c97565b5b6040519080825280601f01601f191660200182016040528015611d125781602001600182028036833780820191505090505b509050600082602001820190505b600115611d75578080600190039150507f3031323334353637383961626364656600000000000000000000000000000000600a86061a8153600a8581611d6957611d68613f54565b5b04945060008503611d20575b819350505050919050565b60007f01ffc9a7000000000000000000000000000000000000000000000000000000007bffffffffffffffffffffffffffffffffffffffffffffffffffffffff1916827bffffffffffffffffffffffffffffffffffffffffffffffffffffffff1916149050919050565b60008073ffffffffffffffffffffffffffffffffffffffff16611e0c83611955565b73ffffffffffffffffffffffffffffffffffffffff1614159050919050565b611e4582826040518060200160405280600081525061229d565b5050565b6001816000016000828254019250508190555050565b611e6b848484846122f8565b6001811115611eaf576040517f08c379a0000000000000000000000000000000000000000000000000000000008152600401611ea690613ff5565b60405180910390fd5b6000829050600073ffffffffffffffffffffffffffffffffffffffff168573ffffffffffffffffffffffffffffffffffffffff1603611ef657611ef18161241e565b611f35565b8373ffffffffffffffffffffffffffffffffffffffff168573ffffffffffffffffffffffffffffffffffffffff1614611f3457611f338582612467565b5b5b600073ffffffffffffffffffffffffffffffffffffffff168473ffffffffffffffffffffffffffffffffffffffff1603611f7757611f72816125d4565b611fb6565b8473ffffffffffffffffffffffffffffffffffffffff168473ffffffffffffffffffffffffffffffffffffffff1614611fb557611fb484826126a5565b5b5b5050505050565b50505050565b6000611fe48473ffffffffffffffffffffffffffffffffffffffff16612724565b1561213d578373ffffffffffffffffffffffffffffffffffffffff1663150b7a0261200d611429565b8786866040518563ffffffff1660e01b815260040161202f949392919061406a565b6020604051808303816000875af192505050801561206b57506040513d601f19601f8201168201806040525081019061206891906140cb565b60015b6120ed573d806000811461209b576040519150601f19603f3d011682016040523d82523d6000602084013e6120a0565b606091505b5060008151036120e5576040517f08c379a00000000000000000000000000000000000000000000000000000000081526004016120dc90613f34565b60405180910390fd5b805181602001fd5b63150b7a0260e01b7bffffffffffffffffffffffffffffffffffffffffffffffffffffffff1916817bffffffffffffffffffffffffffffffffffffffffffffffffffffffff191614915050612142565b600190505b949350505050565b600080600090507a184f03e93ff9f4daa797ed6e38ed64bf6a1f01000000000000000083106121a8577a184f03e93ff9f4daa797ed6e38ed64bf6a1f010000000000000000838161219e5761219d613f54565b5b0492506040810190505b6d04ee2d6d415b85acef810000000083106121e5576d04ee2d6d415b85acef810000000083816121db576121da613f54565b5b0492506020810190505b662386f26fc10000831061221457662386f26fc10000838161220a57612209613f54565b5b0492506010810190505b6305f5e100831061223d576305f5e100838161223357612232613f54565b5b0492506008810190505b612710831061226257612710838161225857612257613f54565b5b0492506004810190505b60648310612285576064838161227b5761227a613f54565b5b0492506002810190505b600a8310612294576001810190505b80915050919050565b6122a78383612747565b6122b46000848484611fc3565b6122f3576040517f08c379a00000000000000000000000000000000000000000000000000000000081526004016122ea90613f34565b60405180910390fd5b505050565b600181111561241857600073ffffffffffffffffffffffffffffffffffffffff168473ffffffffffffffffffffffffffffffffffffffff161461238c5780600360008673ffffffffffffffffffffffffffffffffffffffff1673ffffffffffffffffffffffffffffffffffffffff168152602001908152602001600020600082825461238491906140f8565b925050819055505b600073ffffffffffffffffffffffffffffffffffffffff168373ffffffffffffffffffffffffffffffffffffffff16146124175780600360008573ffffffffffffffffffffffffffffffffffffffff1673ffffffffffffffffffffffffffffffffffffffff168152602001908152602001600020600082825461240f9190613cbc565b925050819055505b5b50505050565b6008805490506009600083815260200190815260200160002081905550600881908060018154018082558091505060019003906000526020600020016000909190919091505550565b6000600161247484610e36565b61247e91906140f8565b9050600060076000848152602001908152602001600020549050818114612563576000600660008673ffffffffffffffffffffffffffffffffffffffff1673ffffffffffffffffffffffffffffffffffffffff168152602001908152602001600020600084815260200190815260200160002054905080600660008773ffffffffffffffffffffffffffffffffffffffff1673ffffffffffffffffffffffffffffffffffffffff168152602001908152602001600020600084815260200190815260200160002081905550816007600083815260200190815260200160002081905550505b6007600084815260200190815260200160002060009055600660008573ffffffffffffffffffffffffffffffffffffffff1673ffffffffffffffffffffffffffffffffffffffff16815260200190815260200160002060008381526020019081526020016000206000905550505050565b600060016008805490506125e891906140f8565b9050600060096000848152602001908152602001600020549050600060088381548110612618576126176137b3565b5b90600052602060002001549050806008838154811061263a576126396137b3565b5b9060005260206000200181905550816009600083815260200190815260200160002081905550600960008581526020019081526020016000206000905560088054806126895761268861412c565b5b6001900381819060005260206000200160009055905550505050565b60006126b083610e36565b905081600660008573ffffffffffffffffffffffffffffffffffffffff1673ffffffffffffffffffffffffffffffffffffffff168152602001908152602001600020600083815260200190815260200160002081905550806007600084815260200190815260200160002081905550505050565b6000808273ffffffffffffffffffffffffffffffffffffffff163b119050919050565b600073ffffffffffffffffffffffffffffffffffffffff168273ffffffffffffffffffffffffffffffffffffffff16036127b6576040517f08c379a00000000000000000000000000000000000000000000000000000000081526004016127ad906141a7565b60405180910390fd5b6127bf81611dea565b156127ff576040517f08c379a00000000000000000000000000000000000000000000000000000000081526004016127f690614213565b60405180910390fd5b61280d600083836001611e5f565b61281681611dea565b15612856576040517f08c379a000000000000000000000000000000000000000000000000000000000815260040161284d90614213565b60405180910390fd5b6001600360008473ffffffffffffffffffffffffffffffffffffffff1673ffffffffffffffffffffffffffffffffffffffff16815260200190815260200160002060008282540192505081905550816002600083815260200190815260200160002060006101000a81548173ffffffffffffffffffffffffffffffffffffffff021916908373ffffffffffffffffffffffffffffffffffffffff160217905550808273ffffffffffffffffffffffffffffffffffffffff16600073ffffffffffffffffffffffffffffffffffffffff167fddf252ad1be2c89b69c2b068fc378daa952ba7f163c4a11628f55a4df523b3ef60405160405180910390a4612960600083836001611fbd565b5050565b6000604051905090565b600080fd5b600080fd5b60007fffffffff0000000000000000000000000000000000000000000000000000000082169050919050565b6129ad81612978565b81146129b857600080fd5b50565b6000813590506129ca816129a4565b92915050565b6000602082840312156129e6576129e561296e565b5b60006129f4848285016129bb565b91505092915050565b60008115159050919050565b612a12816129fd565b82525050565b6000602082019050612a2d6000830184612a09565b92915050565b600081519050919050565b600082825260208201905092915050565b60005b83811015612a6d578082015181840152602081019050612a52565b60008484015250505050565b6000601f19601f8301169050919050565b6000612a9582612a33565b612a9f8185612a3e565b9350612aaf818560208601612a4f565b612ab881612a79565b840191505092915050565b60006020820190508181036000830152612add8184612a8a565b905092915050565b6000819050919050565b612af881612ae5565b8114612b0357600080fd5b50565b600081359050612b1581612aef565b92915050565b600060208284031215612b3157612b3061296e565b5b6000612b3f84828501612b06565b91505092915050565b600073ffffffffffffffffffffffffffffffffffffffff82169050919050565b6000612b7382612b48565b9050919050565b612b8381612b68565b82525050565b6000602082019050612b9e6000830184612b7a565b92915050565b612bad81612b68565b8114612bb857600080fd5b50565b600081359050612bca81612ba4565b92915050565b60008060408385031215612be757612be661296e565b5b6000612bf585828601612bbb565b9250506020612c0685828601612b06565b9150509250929050565b612c1981612ae5565b82525050565b6000602082019050612c346000830184612c10565b92915050565b600080600060608486031215612c5357612c5261296e565b5b6000612c6186828701612bbb565b9350506020612c7286828701612bbb565b9250506040612c8386828701612b06565b9150509250925092565b600080fd5b600080fd5b7f4e487b7100000000000000000000000000000000000000000000000000000000600052604160045260246000fd5b612ccf82612a79565b810181811067ffffffffffffffff82111715612cee57612ced612c97565b5b80604052505050565b6000612d01612964565b9050612d0d8282612cc6565b919050565b600067ffffffffffffffff821115612d2d57612d2c612c97565b5b612d3682612a79565b9050602081019050919050565b82818337600083830152505050565b6000612d65612d6084612d12565b612cf7565b905082815260208101848484011115612d8157612d80612c92565b5b612d8c848285612d43565b509392505050565b600082601f830112612da957612da8612c8d565b5b8135612db9848260208601612d52565b91505092915050565b600060208284031215612dd857612dd761296e565b5b600082013567ffffffffffffffff811115612df657612df5612973565b5b612e0284828501612d94565b91505092915050565b600060208284031215612e2157612e2061296e565b5b6000612e2f84828501612bbb565b91505092915050565b600081519050919050565b600082825260208201905092915050565b6000819050602082019050919050565b612e6d81612ae5565b82525050565b6000612e7f8383612e64565b60208301905092915050565b6000602082019050919050565b6000612ea382612e38565b612ead8185612e43565b9350612eb883612e54565b8060005b83811015612ee9578151612ed08882612e73565b9750612edb83612e8b565b925050600181019050612ebc565b5085935050505092915050565b60006020820190508181036000830152612f108184612e98565b905092915050565b612f21816129fd565b8114612f2c57600080fd5b50565b600081359050612f3e81612f18565b92915050565b60008060408385031215612f5b57612f5a61296e565b5b6000612f6985828601612bbb565b9250506020612f7a85828601612f2f565b9150509250929050565b600067ffffffffffffffff821115612f9f57612f9e612c97565b5b612fa882612a79565b9050602081019050919050565b6000612fc8612fc384612f84565b612cf7565b905082815260208101848484011115612fe457612fe3612c92565b5b612fef848285612d43565b509392505050565b600082601f83011261300c5761300b612c8d565b5b813561301c848260208601612fb5565b91505092915050565b6000806000806080858703121561303f5761303e61296e565b5b600061304d87828801612bbb565b945050602061305e87828801612bbb565b935050604061306f87828801612b06565b925050606085013567ffffffffffffffff8111156130905761308f612973565b5b61309c87828801612ff7565b91505092959194509250565b600080604083850312156130bf576130be61296e565b5b60006130cd85828601612bbb565b92505060206130de85828601612bbb565b9150509250929050565b7f4e487b7100000000000000000000000000000000000000000000000000000000600052602260045260246000fd5b6000600282049050600182168061312f57607f821691505b602082108103613142576131416130e8565b5b50919050565b7f4552433732313a20617070726f76616c20746f2063757272656e74206f776e6560008201527f7200000000000000000000000000000000000000000000000000000000000000602082015250565b60006131a4602183612a3e565b91506131af82613148565b604082019050919050565b600060208201905081810360008301526131d381613197565b9050919050565b7f4552433732313a20617070726f76652063616c6c6572206973206e6f7420746f60008201527f6b656e206f776e6572206f7220617070726f76656420666f7220616c6c000000602082015250565b6000613236603d83612a3e565b9150613241826131da565b604082019050919050565b6000602082019050818103600083015261326581613229565b9050919050565b7f4e6f7420656e6f756768204e4654730000000000000000000000000000000000600082015250565b60006132a2600f83612a3e565b91506132ad8261326c565b602082019050919050565b600060208201905081810360008301526132d181613295565b9050919050565b7f4e487b7100000000000000000000000000000000000000000000000000000000600052601160045260246000fd5b600061331282612ae5565b91507fffffffffffffffffffffffffffffffffffffffffffffffffffffffffffffffff8203613344576133436132d8565b5b600182019050919050565b7f4552433732313a2063616c6c6572206973206e6f7420746f6b656e206f776e6560008201527f72206f7220617070726f76656400000000000000000000000000000000000000602082015250565b60006133ab602d83612a3e565b91506133b68261334f565b604082019050919050565b600060208201905081810360008301526133da8161339e565b9050919050565b7f455243373231456e756d657261626c653a206f776e657220696e646578206f7560008201527f74206f6620626f756e6473000000000000000000000000000000000000000000602082015250565b600061343d602b83612a3e565b9150613448826133e1565b604082019050919050565b6000602082019050818103600083015261346c81613430565b9050919050565b7f4e6f7420656e6f756768204e4654732100000000000000000000000000000000600082015250565b60006134a9601083612a3e565b91506134b482613473565b602082019050919050565b600060208201905081810360008301526134d88161349c565b9050919050565b7f43616e6e6f74206d696e7420737065636966696564206e756d626572206f662060008201527f4e4654732e000000000000000000000000000000000000000000000000000000602082015250565b600061353b602583612a3e565b9150613546826134df565b604082019050919050565b6000602082019050818103600083015261356a8161352e565b9050919050565b7f4e6f7420656e6f75676820657468657220746f207075726368617365204e465460008201527f732e000000000000000000000000000000000000000000000000000000000000602082015250565b60006135cd602283612a3e565b91506135d882613571565b604082019050919050565b600060208201905081810360008301526135fc816135c0565b9050919050565b7f4e6f206574686572206c65667420746f20776974686472617700000000000000600082015250565b6000613639601983612a3e565b915061364482613603565b602082019050919050565b600060208201905081810360008301526136688161362c565b9050919050565b600081905092915050565b50565b600061368a60008361366f565b91506136958261367a565b600082019050919050565b60006136ab8261367d565b9150819050919050565b7f5472616e73666572206661696c65642e00000000000000000000000000000000600082015250565b60006136eb601083612a3e565b91506136f6826136b5565b602082019050919050565b6000602082019050818103600083015261371a816136de565b9050919050565b7f455243373231456e756d657261626c653a20676c6f62616c20696e646578206f60008201527f7574206f6620626f756e64730000000000000000000000000000000000000000602082015250565b600061377d602c83612a3e565b915061378882613721565b604082019050919050565b600060208201905081810360008301526137ac81613770565b9050919050565b7f4e487b7100000000000000000000000000000000000000000000000000000000600052603260045260246000fd5b60008190508160005260206000209050919050565b60006020601f8301049050919050565b600082821b905092915050565b6000600883026138447fffffffffffffffffffffffffffffffffffffffffffffffffffffffffffffffff82613807565b61384e8683613807565b95508019841693508086168417925050509392505050565b6000819050919050565b600061388b61388661388184612ae5565b613866565b612ae5565b9050919050565b6000819050919050565b6138a583613870565b6138b96138b182613892565b848454613814565b825550505050565b600090565b6138ce6138c1565b6138d981848461389c565b505050565b5b818110156138fd576138f26000826138c6565b6001810190506138df565b5050565b601f82111561394257613913816137e2565b61391c846137f7565b8101602085101561392b578190505b61393f613937856137f7565b8301826138de565b50505b505050565b600082821c905092915050565b600061396560001984600802613947565b1980831691505092915050565b600061397e8383613954565b9150826002028217905092915050565b61399782612a33565b67ffffffffffffffff8111156139b0576139af612c97565b5b6139ba8254613117565b6139c5828285613901565b600060209050601f8311600181146139f857600084156139e6578287015190505b6139f08582613972565b865550613a58565b601f198416613a06866137e2565b60005b82811015613a2e57848901518255600182019150602085019450602081019050613a09565b86831015613a4b5784890151613a47601f891682613954565b8355505b6001600288020188555050505b505050505050565b7f4552433732313a20696e76616c696420746f6b656e2049440000000000000000600082015250565b6000613a96601883612a3e565b9150613aa182613a60565b602082019050919050565b60006020820190508181036000830152613ac581613a89565b9050919050565b7f4552433732313a2061646472657373207a65726f206973206e6f74206120766160008201527f6c6964206f776e65720000000000000000000000000000000000000000000000602082015250565b6000613b28602983612a3e565b9150613b3382613acc565b604082019050919050565b60006020820190508181036000830152613b5781613b1b565b9050919050565b600081905092915050565b6000613b7482612a33565b613b7e8185613b5e565b9350613b8e818560208601612a4f565b80840191505092915050565b6000613ba68285613b69565b9150613bb28284613b69565b91508190509392505050565b7f4f776e61626c653a206e6577206f776e657220697320746865207a65726f206160008201527f6464726573730000000000000000000000000000000000000000000000000000602082015250565b6000613c1a602683612a3e565b9150613c2582613bbe565b604082019050919050565b60006020820190508181036000830152613c4981613c0d565b9050919050565b7f4f776e61626c653a2063616c6c6572206973206e6f7420746865206f776e6572600082015250565b6000613c86602083612a3e565b9150613c9182613c50565b602082019050919050565b60006020820190508181036000830152613cb581613c79565b9050919050565b6000613cc782612ae5565b9150613cd283612ae5565b9250828201905080821115613cea57613ce96132d8565b5b92915050565b7f4552433732313a207472616e736665722066726f6d20696e636f72726563742060008201527f6f776e6572000000000000000000000000000000000000000000000000000000602082015250565b6000613d4c602583612a3e565b9150613d5782613cf0565b604082019050919050565b60006020820190508181036000830152613d7b81613d3f565b9050919050565b7f4552433732313a207472616e7366657220746f20746865207a65726f2061646460008201527f7265737300000000000000000000000000000000000000000000000000000000602082015250565b6000613dde602483612a3e565b9150613de982613d82565b604082019050919050565b60006020820190508181036000830152613e0d81613dd1565b9050919050565b6000613e1f82612ae5565b9150613e2a83612ae5565b9250828202613e3881612ae5565b91508282048414831517613e4f57613e4e6132d8565b5b5092915050565b7f4552433732313a20617070726f766520746f2063616c6c657200000000000000600082015250565b6000613e8c601983612a3e565b9150613e9782613e56565b602082019050919050565b60006020820190508181036000830152613ebb81613e7f565b9050919050565b7f4552433732313a207472616e7366657220746f206e6f6e20455243373231526560008201527f63656976657220696d706c656d656e7465720000000000000000000000000000602082015250565b6000613f1e603283612a3e565b9150613f2982613ec2565b604082019050919050565b60006020820190508181036000830152613f4d81613f11565b9050919050565b7f4e487b7100000000000000000000000000000000000000000000000000000000600052601260045260246000fd5b7f455243373231456e756d657261626c653a20636f6e736563757469766520747260008201527f616e7366657273206e6f7420737570706f727465640000000000000000000000602082015250565b6000613fdf603583612a3e565b9150613fea82613f83565b604082019050919050565b6000602082019050818103600083015261400e81613fd2565b9050919050565b600081519050919050565b600082825260208201905092915050565b600061403c82614015565b6140468185614020565b9350614056818560208601612a4f565b61405f81612a79565b840191505092915050565b600060808201905061407f6000830187612b7a565b61408c6020830186612b7a565b6140996040830185612c10565b81810360608301526140ab8184614031565b905095945050505050565b6000815190506140c5816129a4565b92915050565b6000602082840312156140e1576140e061296e565b5b60006140ef848285016140b6565b91505092915050565b600061410382612ae5565b915061410e83612ae5565b9250828203905081811115614126576141256132d8565b5b92915050565b7f4e487b7100000000000000000000000000000000000000000000000000000000600052603160045260246000fd5b7f4552433732313a206d696e7420746f20746865207a65726f2061646472657373600082015250565b6000614191602083612a3e565b915061419c8261415b565b602082019050919050565b600060208201905081810360008301526141c081614184565b9050919050565b7f4552433732313a20746f6b656e20616c7265616479206d696e74656400000000600082015250565b60006141fd601c83612a3e565b9150614208826141c7565b602082019050919050565b6000602082019050818103600083015261422c816141f0565b905091905056fea26469706673582212202d3597f2fffce895dc22142f54952bb1a73ec59ee7733c7e666ba1eebe855fc864736f6c63430008110033",
  "linkReferences": {},
  "deployedLinkReferences": {}
}